{
  "address": "0xd5E657A62A782421ddB44440899a7342B13c4b8d",
  "abi": [
    {
      "inputs": [],
      "stateMutability": "nonpayable",
      "type": "constructor"
    },
    {
      "anonymous": false,
      "inputs": [
        {
          "indexed": false,
          "internalType": "uint256",
          "name": "ISBN",
          "type": "uint256"
        }
      ],
      "name": "BukuDiHapus",
      "type": "event"
    },
    {
      "anonymous": false,
      "inputs": [
        {
          "indexed": false,
          "internalType": "uint256",
          "name": "ISBN",
          "type": "uint256"
        },
        {
          "indexed": false,
          "internalType": "string",
          "name": "judul",
          "type": "string"
        },
        {
          "indexed": false,
          "internalType": "uint256",
          "name": "tahunDibuat",
          "type": "uint256"
        },
        {
          "indexed": false,
          "internalType": "string",
          "name": "penulis",
          "type": "string"
        }
      ],
      "name": "BukuDiUpdate",
      "type": "event"
    },
    {
      "anonymous": false,
      "inputs": [
        {
          "indexed": false,
          "internalType": "uint256",
          "name": "ISBN",
          "type": "uint256"
        },
        {
          "indexed": false,
          "internalType": "string",
          "name": "judul",
          "type": "string"
        },
        {
          "indexed": false,
          "internalType": "uint256",
          "name": "tahunDibuat",
          "type": "uint256"
        },
        {
          "indexed": false,
          "internalType": "string",
          "name": "penulis",
          "type": "string"
        }
      ],
      "name": "BukuDitambahkan",
      "type": "event"
    },
    {
      "inputs": [],
      "name": "admin",
      "outputs": [
        {
          "internalType": "address",
          "name": "",
          "type": "address"
        }
      ],
      "stateMutability": "view",
      "type": "function"
    },
    {
      "inputs": [
        {
          "internalType": "uint256",
          "name": "",
          "type": "uint256"
        }
      ],
      "name": "bukuByISBN",
      "outputs": [
        {
          "internalType": "string",
          "name": "judul",
          "type": "string"
        },
        {
          "internalType": "uint256",
          "name": "tahunDibuat",
          "type": "uint256"
        },
        {
          "internalType": "string",
          "name": "penulis",
          "type": "string"
        }
      ],
      "stateMutability": "view",
      "type": "function"
    },
    {
      "inputs": [
        {
          "internalType": "uint256",
          "name": "ISBN",
          "type": "uint256"
        }
      ],
      "name": "getDataBukuByISBN",
      "outputs": [
        {
          "internalType": "string",
          "name": "",
          "type": "string"
        },
        {
          "internalType": "uint256",
          "name": "",
          "type": "uint256"
        },
        {
          "internalType": "string",
          "name": "",
          "type": "string"
        }
      ],
      "stateMutability": "view",
      "type": "function"
    },
    {
      "inputs": [
        {
          "internalType": "uint256",
          "name": "ISBN",
          "type": "uint256"
        }
      ],
      "name": "hapusBuku",
      "outputs": [],
      "stateMutability": "nonpayable",
      "type": "function"
    },
    {
      "inputs": [
        {
          "internalType": "address",
          "name": "newAdmin",
          "type": "address"
        }
      ],
      "name": "setAdmin",
      "outputs": [],
      "stateMutability": "nonpayable",
      "type": "function"
    },
    {
      "inputs": [
        {
          "internalType": "uint256",
          "name": "ISBN",
          "type": "uint256"
        },
        {
          "internalType": "string",
          "name": "judul",
          "type": "string"
        },
        {
          "internalType": "uint256",
          "name": "tahunDibuat",
          "type": "uint256"
        },
        {
          "internalType": "string",
          "name": "penulis",
          "type": "string"
        }
      ],
      "name": "tambahBuku",
      "outputs": [],
      "stateMutability": "nonpayable",
      "type": "function"
    },
    {
      "inputs": [
        {
          "internalType": "uint256",
          "name": "ISBN",
          "type": "uint256"
        },
        {
          "internalType": "string",
          "name": "judul",
          "type": "string"
        },
        {
          "internalType": "uint256",
          "name": "tahunDibuat",
          "type": "uint256"
        },
        {
          "internalType": "string",
          "name": "penulis",
          "type": "string"
        }
      ],
      "name": "updateBuku",
      "outputs": [],
      "stateMutability": "nonpayable",
      "type": "function"
    }
  ],
  "transactionHash": "0x146c19d31b3cd1a938ecbf9a03bc4f5e0e67dd745018f3af2501bf6426f5442c",
  "args": [],
  "numDeployments": 1,
  "solcInputHash": "5606c584376f197a88b72bda17abf907",
  "bytecode": "0x608060405234801561001057600080fd5b50600180546001600160a01b03191633179055610b68806100326000396000f3fe608060405234801561001057600080fd5b506004361061007d5760003560e01c8063b4a19ae41161005b578063b4a19ae4146100d5578063ebe47460146100e8578063f0a85cf7146100fb578063f851a4401461010e57600080fd5b80632e28a7ca1461008257806362b56c7414610097578063704b6c02146100c2575b600080fd5b610095610090366004610848565b610139565b005b6100aa6100a5366004610848565b610205565b6040516100b9939291906108ae565b60405180910390f35b6100956100d03660046108e3565b61037d565b6100956100e33660046109b6565b61041f565b6100956100f63660046109b6565b61054e565b6100aa610109366004610848565b610640565b600154610121906001600160a01b031681565b6040516001600160a01b0390911681526020016100b9565b6001546001600160a01b0316331461016c5760405162461bcd60e51b815260040161016390610a2d565b60405180910390fd5b600081815260208190526040812060010154900361019c5760405162461bcd60e51b815260040161016390610a78565b6000818152602081905260408120906101b58282610772565b60018201600090556002820160006101cd9190610772565b50506040518181527fb64bf8f8d915e69adc10f6e2e15e12480757699268bf04af8a5814c6464d209e9060200160405180910390a150565b600081815260208190526040812060010154606091908290820361023b5760405162461bcd60e51b815260040161016390610a78565b6000848152602081905260409020600181015481548291906002830190839061026390610abc565b80601f016020809104026020016040519081016040528092919081815260200182805461028f90610abc565b80156102dc5780601f106102b1576101008083540402835291602001916102dc565b820191906000526020600020905b8154815290600101906020018083116102bf57829003601f168201915b505050505092508080546102ef90610abc565b80601f016020809104026020016040519081016040528092919081815260200182805461031b90610abc565b80156103685780601f1061033d57610100808354040283529160200191610368565b820191906000526020600020905b81548152906001019060200180831161034b57829003601f168201915b50505050509050935093509350509193909250565b6001546001600160a01b031633146103a75760405162461bcd60e51b815260040161016390610a2d565b6001600160a01b0381166103fd5760405162461bcd60e51b815260206004820152601d60248201527f416c616d61742061646d696e206261727520746964616b2076616c69640000006044820152606401610163565b600180546001600160a01b0319166001600160a01b0392909216919091179055565b6001546001600160a01b031633146104495760405162461bcd60e51b815260040161016390610a2d565b600084815260208190526040902060010154156104a85760405162461bcd60e51b815260206004820152601e60248201527f42756b752064656e67616e204953424e20696e692073756461682061646100006044820152606401610163565b60408051606081018252848152602080820185905281830184905260008781528082529290922081518051929391926104e492849201906107af565b5060208281015160018301556040830151805161050792600285019201906107af565b509050507fd0d4cd8737018e52a6388a5921967e80bec857befd9ca6c10fa377129e0cba4b848484846040516105409493929190610af6565b60405180910390a150505050565b6001546001600160a01b031633146105785760405162461bcd60e51b815260040161016390610a2d565b60008481526020819052604081206001015490036105a85760405162461bcd60e51b815260040161016390610a78565b60408051606081018252848152602080820185905281830184905260008781528082529290922081518051929391926105e492849201906107af565b5060208281015160018301556040830151805161060792600285019201906107af565b509050507f3de851df31ed010f9b8e47e3fd14c70b9217b7f7b8b7cc17b7c82160007fde7f848484846040516105409493929190610af6565b60006020819052908152604090208054819061065b90610abc565b80601f016020809104026020016040519081016040528092919081815260200182805461068790610abc565b80156106d45780601f106106a9576101008083540402835291602001916106d4565b820191906000526020600020905b8154815290600101906020018083116106b757829003601f168201915b5050505050908060010154908060020180546106ef90610abc565b80601f016020809104026020016040519081016040528092919081815260200182805461071b90610abc565b80156107685780601f1061073d57610100808354040283529160200191610768565b820191906000526020600020905b81548152906001019060200180831161074b57829003601f168201915b5050505050905083565b50805461077e90610abc565b6000825580601f1061078e575050565b601f0160209004906000526020600020908101906107ac9190610833565b50565b8280546107bb90610abc565b90600052602060002090601f0160209004810192826107dd5760008555610823565b82601f106107f657805160ff1916838001178555610823565b82800160010185558215610823579182015b82811115610823578251825591602001919060010190610808565b5061082f929150610833565b5090565b5b8082111561082f5760008155600101610834565b60006020828403121561085a57600080fd5b5035919050565b6000815180845260005b818110156108875760208185018101518683018201520161086b565b81811115610899576000602083870101525b50601f01601f19169290920160200192915050565b6060815260006108c16060830186610861565b84602084015282810360408401526108d98185610861565b9695505050505050565b6000602082840312156108f557600080fd5b81356001600160a01b038116811461090c57600080fd5b9392505050565b634e487b7160e01b600052604160045260246000fd5b600082601f83011261093a57600080fd5b813567ffffffffffffffff8082111561095557610955610913565b604051601f8301601f19908116603f0116810190828211818310171561097d5761097d610913565b8160405283815286602085880101111561099657600080fd5b836020870160208301376000602085830101528094505050505092915050565b600080600080608085870312156109cc57600080fd5b84359350602085013567ffffffffffffffff808211156109eb57600080fd5b6109f788838901610929565b9450604087013593506060870135915080821115610a1457600080fd5b50610a2187828801610929565b91505092959194509250565b6020808252602b908201527f48616e79612061646d696e2079616e67206461706174206d656e67616b73657360408201526a2066756e67736920696e6960a81b606082015260800190565b60208082526024908201527f42756b752064656e67616e204953424e20696e6920746964616b20646974656d6040820152633ab5b0b760e11b606082015260800190565b600181811c90821680610ad057607f821691505b602082108103610af057634e487b7160e01b600052602260045260246000fd5b50919050565b848152608060208201526000610b0f6080830186610861565b8460408401528281036060840152610b278185610861565b97965050505050505056fea264697066735822122099bb84d65f3ea1019751b76e05ff936141f75f27b730b6eda36ae2656b654bff64736f6c634300080d0033",
  "devdoc": {
    "kind": "dev",
    "methods": {},
    "version": 1
  },
  "userdoc": {
    "kind": "user",
    "methods": {},
    "version": 1
  },
  "storageLayout": {
    "storage": [
      {
        "astId": 92,
        "contract": "contracts/Perpustakaan.sol:Perpustakaan",
        "label": "bukuByISBN",
        "offset": 0,
        "slot": "0",
        "type": "t_mapping(t_uint256,t_struct(Buku)87_storage)"
      },
      {
        "astId": 94,
        "contract": "contracts/Perpustakaan.sol:Perpustakaan",
        "label": "admin",
        "offset": 0,
        "slot": "1",
        "type": "t_address"
      }
    ],
    "types": {
      "t_address": {
        "encoding": "inplace",
        "label": "address",
        "numberOfBytes": "20"
      },
      "t_mapping(t_uint256,t_struct(Buku)87_storage)": {
        "encoding": "mapping",
        "key": "t_uint256",
        "label": "mapping(uint256 => struct Perpustakaan.Buku)",
        "numberOfBytes": "32",
        "value": "t_struct(Buku)87_storage"
      },
      "t_string_storage": {
        "encoding": "bytes",
        "label": "string",
        "numberOfBytes": "32"
      },
      "t_struct(Buku)87_storage": {
        "encoding": "inplace",
        "label": "struct Perpustakaan.Buku",
        "members": [
          {
            "astId": 82,
            "contract": "contracts/Perpustakaan.sol:Perpustakaan",
            "label": "judul",
            "offset": 0,
            "slot": "0",
            "type": "t_string_storage"
          },
          {
            "astId": 84,
            "contract": "contracts/Perpustakaan.sol:Perpustakaan",
            "label": "tahunDibuat",
            "offset": 0,
            "slot": "1",
            "type": "t_uint256"
          },
          {
            "astId": 86,
            "contract": "contracts/Perpustakaan.sol:Perpustakaan",
            "label": "penulis",
            "offset": 0,
            "slot": "2",
            "type": "t_string_storage"
          }
        ],
        "numberOfBytes": "96"
      },
      "t_uint256": {
        "encoding": "inplace",
        "label": "uint256",
        "numberOfBytes": "32"
      }
    }
  }
}